{
  "contractName": "Authentication",
  "abi": [
    {
      "constant": false,
      "inputs": [
        {
          "internalType": "string",
          "name": "_hash",
          "type": "string"
        }
      ],
      "name": "set_tx",
      "outputs": [],
      "payable": false,
      "stateMutability": "nonpayable",
      "type": "function"
    },
    {
      "constant": true,
      "inputs": [
        {
          "internalType": "bytes32",
          "name": "_hash",
          "type": "bytes32"
        }
      ],
      "name": "auth",
      "outputs": [
        {
          "internalType": "bool",
          "name": "",
          "type": "bool"
        }
      ],
      "payable": false,
      "stateMutability": "view",
      "type": "function"
    }
  ],
  "bytecode": "0x608060405234801561001057600080fd5b50610729806100206000396000f3fe608060405234801561001057600080fd5b50600436106100365760003560e01c8063b2aee3b91461003b578063c0e1da5814610081575b600080fd5b6100676004803603602081101561005157600080fd5b810190808035906020019092919050505061013c565b604051808215151515815260200191505060405180910390f35b61013a6004803603602081101561009757600080fd5b81019080803590602001906401000000008111156100b457600080fd5b8201836020820111156100c657600080fd5b803590602001918460018302840111640100000000831117156100e857600080fd5b91908080601f016020809104026020016040519081016040528093929190818152602001838380828437600081840152601f19601f820116905080830192505050505050509192919290505050610566565b005b60008060009050600060059050610151610628565b600060016000805490500390505b600081106103465733604051602001808273ffffffffffffffffffffffffffffffffffffffff1673ffffffffffffffffffffffffffffffffffffffff1660601b815260140191505060405160208183030381529060405280519060200120600082815481106101ca57fe5b906000526020600020906002020160010160009054906101000a900473ffffffffffffffffffffffffffffffffffffffff16604051602001808273ffffffffffffffffffffffffffffffffffffffff1673ffffffffffffffffffffffffffffffffffffffff1660601b815260140191505060405160208183030381529060405280519060200120141561032b576000818154811061026457fe5b90600052602060002090600202016000018054600181600116156101000203166002900480601f0160208091040260200160405190810160405280929190818152602001828054600181600116156101000203166002900480156103095780601f106102de57610100808354040283529160200191610309565b820191906000526020600020905b8154815290600101906020018083116102ec57829003601f168201915b505050505082856005811061031a57fe5b602002018190525083806001019450505b8284141561033857610346565b80806001900391505061015f565b50848160006005811061035557fe5b60200201518260016005811061036757fe5b60200201518360026005811061037957fe5b60200201518460036005811061038b57fe5b60200201518560046005811061039d57fe5b60200201516040516020018086805190602001908083835b602083106103d857805182526020820191506020810190506020830392506103b5565b6001836020036101000a03801982511681845116808217855250505050505090500185805190602001908083835b602083106104295780518252602082019150602081019050602083039250610406565b6001836020036101000a03801982511681845116808217855250505050505090500184805190602001908083835b6020831061047a5780518252602082019150602081019050602083039250610457565b6001836020036101000a03801982511681845116808217855250505050505090500183805190602001908083835b602083106104cb57805182526020820191506020810190506020830392506104a8565b6001836020036101000a03801982511681845116808217855250505050505090500182805190602001908083835b6020831061051c57805182526020820191506020810190506020830392506104f9565b6001836020036101000a0380198251168184511680821785525050505050509050019550505050505060405160208183030381529060405280519060200120149350505050919050565b600060405180604001604052808381526020013373ffffffffffffffffffffffffffffffffffffffff168152509080600181540180825580915050906001820390600052602060002090600202016000909192909190915060008201518160000190805190602001906105da92919061064f565b5060208201518160010160006101000a81548173ffffffffffffffffffffffffffffffffffffffff021916908373ffffffffffffffffffffffffffffffffffffffff16021790555050505050565b6040518060a001604052806005905b60608152602001906001900390816106375790505090565b828054600181600116156101000203166002900490600052602060002090601f016020900481019282601f1061069057805160ff19168380011785556106be565b828001600101855582156106be579182015b828111156106bd5782518255916020019190600101906106a2565b5b5090506106cb91906106cf565b5090565b6106f191905b808211156106ed5760008160009055506001016106d5565b5090565b9056fea265627a7a723158206bd87f0291dc003b0ec93b49b33779ee27e9ee4bf3acc516b27b16263e5191bd64736f6c63430005100032",
  "source": "// SPDX-License-Identifier: MIT\r\n// データ格納トランザクションを実行するたびにsetコントラクトが呼び出されることが望ましい\r\npragma solidity >=0.4.0 <0.8.0;\r\n\r\ncontract Authentication{\r\n    \r\n    //トランザクションを格納するための構造体(txhashとアドレスを紐付ける)\r\n    struct Transaction{\r\n        string transaction;\r\n        address from;\r\n    }\r\n    \r\n    //トランザクションとアドレスを格納している可変長配列\r\n    Transaction[] private transactions;\r\n    \r\n    //tx hashの先頭0xはユーザ側で切り取って格納する(なぜかbytes32形式だとハッシュの結果が変わる)\r\n    function set_tx(string memory _hash) public {\r\n        transactions.push(Transaction(_hash , msg.sender));\r\n    }\r\n\r\n    //認証部分\r\n    function auth(bytes32 _hash) public view returns (bool){\r\n        uint tx_count = 0;\r\n        uint finish_count = 5; //いくつのトランザクションを用いるかを指定するカウンタ\r\n        string[5] memory txs; //アドレス適合ハッシュを格納しておくための固定長string配列\r\n        \r\n        //配列を後ろから探索しアドレスが一致していればtxsに格納\r\n        for(uint i = transactions.length - 1; i >= 0; i--){\r\n            //アドレスが一致しているかの確認\r\n            if(keccak256(abi.encodePacked(transactions[i].from)) == keccak256(abi.encodePacked(msg.sender))){\r\n                txs[tx_count] = transactions[i].transaction; //txs配列の長さで得られる位置にtxhashを格納\r\n                tx_count++;\r\n            }\r\n            //txs配列の長さとfinish_countが一致していればループを抜ける\r\n            if(tx_count == finish_count){\r\n                break;\r\n            }\r\n        }\r\n        \r\n        //txs配列の要素すべてとユーザ側から送られてきた_hashが一致していればtrueを返却(でなければfalseを返却)\r\n        return (keccak256(abi.encodePacked(txs[0],txs[1],txs[2],txs[3],txs[4])) == _hash);\r\n    }\r\n}",
  "sourcePath": "C:/Users/shuuu/dev_contract_pre/contracts/Authentication.sol",
  "compiler": {
    "name": "solc",
    "version": "0.5.16+commit.9c3226ce.Emscripten.clang"
  },
  "schemaVersion": "3.3.1",
  "updatedAt": "2020-11-18T08:30:23.665Z",
  "networkType": "ethereum",
  "devdoc": {
    "methods": {}
  },
  "userdoc": {
    "methods": {}
  }
}