{
  "contractName": "Authentication",
  "abi": [
    {
      "constant": true,
      "inputs": [
        {
          "internalType": "uint256",
          "name": "",
          "type": "uint256"
        }
      ],
      "name": "transactions",
      "outputs": [
        {
          "internalType": "string",
          "name": "transaction",
          "type": "string"
        },
        {
          "internalType": "address",
          "name": "from",
          "type": "address"
        }
      ],
      "payable": false,
      "stateMutability": "view",
      "type": "function"
    },
    {
      "constant": false,
      "inputs": [
        {
          "internalType": "string",
          "name": "_hash",
          "type": "string"
        },
        {
          "internalType": "address",
          "name": "_address",
          "type": "address"
        }
      ],
      "name": "set_tx",
      "outputs": [],
      "payable": false,
      "stateMutability": "nonpayable",
      "type": "function"
    },
    {
      "constant": true,
      "inputs": [
        {
          "internalType": "bytes32",
          "name": "_hash",
          "type": "bytes32"
        },
        {
          "internalType": "address",
          "name": "_address",
          "type": "address"
        }
      ],
      "name": "auth",
      "outputs": [
        {
          "internalType": "bool",
          "name": "",
          "type": "bool"
        }
      ],
      "payable": false,
      "stateMutability": "view",
      "type": "function"
    }
  ],
  "bytecode": "0x608060405234801561001057600080fd5b50610939806100206000396000f3fe608060405234801561001057600080fd5b50600436106100415760003560e01c8063516a166a1461004657806389a96209146100ac5780639ace38c214610187575b600080fd5b6100926004803603604081101561005c57600080fd5b8101908080359060200190929190803573ffffffffffffffffffffffffffffffffffffffff169060200190929190505050610261565b604051808215151515815260200191505060405180910390f35b610185600480360360408110156100c257600080fd5b81019080803590602001906401000000008111156100df57600080fd5b8201836020820111156100f157600080fd5b8035906020019184600183028401116401000000008311171561011357600080fd5b91908080601f016020809104026020016040519081016040528093929190818152602001838380828437600081840152601f19601f820116905080830192505050505050509192919290803573ffffffffffffffffffffffffffffffffffffffff16906020019092919050505061068c565b005b6101b36004803603602081101561019d57600080fd5b810190808035906020019092919050505061074f565b60405180806020018373ffffffffffffffffffffffffffffffffffffffff1673ffffffffffffffffffffffffffffffffffffffff168152602001828103825284818151815260200191508051906020019080838360005b8381101561022557808201518184015260208101905061020a565b50505050905090810190601f1680156102525780820380516001836020036101000a031916815260200191505b50935050505060405180910390f35b60008060009050600060059050610276610838565b600060016000805490500390505b6000811061046b5785604051602001808273ffffffffffffffffffffffffffffffffffffffff1673ffffffffffffffffffffffffffffffffffffffff1660601b815260140191505060405160208183030381529060405280519060200120600082815481106102ef57fe5b906000526020600020906002020160010160009054906101000a900473ffffffffffffffffffffffffffffffffffffffff16604051602001808273ffffffffffffffffffffffffffffffffffffffff1673ffffffffffffffffffffffffffffffffffffffff1660601b8152601401915050604051602081830303815290604052805190602001201415610450576000818154811061038957fe5b90600052602060002090600202016000018054600181600116156101000203166002900480601f01602080910402602001604051908101604052809291908181526020018280546001816001161561010002031660029004801561042e5780601f106104035761010080835404028352916020019161042e565b820191906000526020600020905b81548152906001019060200180831161041157829003601f168201915b505050505082856005811061043f57fe5b602002018190525083806001019450505b8284141561045d5761046b565b808060019003915050610284565b50858160006005811061047a57fe5b60200201518260016005811061048c57fe5b60200201518360026005811061049e57fe5b6020020151846003600581106104b057fe5b6020020151856004600581106104c257fe5b60200201516040516020018086805190602001908083835b602083106104fd57805182526020820191506020810190506020830392506104da565b6001836020036101000a03801982511681845116808217855250505050505090500185805190602001908083835b6020831061054e578051825260208201915060208101905060208303925061052b565b6001836020036101000a03801982511681845116808217855250505050505090500184805190602001908083835b6020831061059f578051825260208201915060208101905060208303925061057c565b6001836020036101000a03801982511681845116808217855250505050505090500183805190602001908083835b602083106105f057805182526020820191506020810190506020830392506105cd565b6001836020036101000a03801982511681845116808217855250505050505090500182805190602001908083835b60208310610641578051825260208201915060208101905060208303925061061e565b6001836020036101000a038019825116818451168082178552505050505050905001955050505050506040516020818303038152906040528051906020012014935050505092915050565b600060405180604001604052808481526020018373ffffffffffffffffffffffffffffffffffffffff1681525090806001815401808255809150509060018203906000526020600020906002020160009091929091909150600082015181600001908051906020019061070092919061085f565b5060208201518160010160006101000a81548173ffffffffffffffffffffffffffffffffffffffff021916908373ffffffffffffffffffffffffffffffffffffffff1602179055505050505050565b6000818154811061075c57fe5b9060005260206000209060020201600091509050806000018054600181600116156101000203166002900480601f0160208091040260200160405190810160405280929190818152602001828054600181600116156101000203166002900480156108085780601f106107dd57610100808354040283529160200191610808565b820191906000526020600020905b8154815290600101906020018083116107eb57829003601f168201915b5050505050908060010160009054906101000a900473ffffffffffffffffffffffffffffffffffffffff16905082565b6040518060a001604052806005905b60608152602001906001900390816108475790505090565b828054600181600116156101000203166002900490600052602060002090601f016020900481019282601f106108a057805160ff19168380011785556108ce565b828001600101855582156108ce579182015b828111156108cd5782518255916020019190600101906108b2565b5b5090506108db91906108df565b5090565b61090191905b808211156108fd5760008160009055506001016108e5565b5090565b9056fea265627a7a72315820c7e039c826502589cb76fa2bdf9eef729a578e554661c3631fed50eb3fe7d34f64736f6c63430005100032",
  "source": "// SPDX-License-Identifier: MIT\r\n// データ格納トランザクションを実行するたびにsetコントラクトが呼び出されることが望ましい\r\npragma solidity >=0.4.0 <0.8.0;\r\n\r\ncontract Authentication{\r\n    \r\n    //トランザクションを格納するための構造体(txhashとアドレスを紐付ける)\r\n    struct Transaction{\r\n        string transaction;\r\n        address from;\r\n    }\r\n    \r\n    //トランザクションとアドレスを格納している可変長配列\r\n    Transaction[] public transactions;\r\n    \r\n    //tx hashの先頭0xはユーザ側で切り取って格納する(なぜかbytes32形式だとハッシュの結果が変わる)\r\n    function set_tx(string memory _hash,address _address) public {\r\n        transactions.push(Transaction(_hash , _address));\r\n    }\r\n\r\n    //認証部分\r\n    function auth(bytes32 _hash,address _address) public view returns (bool){\r\n        uint tx_count = 0;\r\n        uint finish_count = 5; //いくつのトランザクションを用いるかを指定するカウンタ\r\n        string[5] memory txs; //アドレス適合ハッシュを格納しておくための固定長string配列\r\n        \r\n        //配列を後ろから探索しアドレスが一致していればtxsに格納\r\n        for(uint i = transactions.length - 1; i >= 0; i--){\r\n            //アドレスが一致しているかの確認\r\n            if(keccak256(abi.encodePacked(transactions[i].from)) == keccak256(abi.encodePacked(_address))){\r\n                txs[tx_count] = transactions[i].transaction; //txs配列の長さで得られる位置にtxhashを格納\r\n                tx_count++;\r\n            }\r\n            //txs配列の長さとfinish_countが一致していればループを抜ける\r\n            if(tx_count == finish_count){\r\n                break;\r\n            }\r\n        }\r\n        \r\n        //txs配列の要素すべてとユーザ側から送られてきた_hashが一致していればtrueを返却(でなければfalseを返却)\r\n        return (keccak256(abi.encodePacked(txs[0],txs[1],txs[2],txs[3],txs[4])) == _hash);\r\n    }\r\n}",
  "sourcePath": "C:/Users/shuuu/dev_contract_pre/contracts/Authentication.sol",
  "compiler": {
    "name": "solc",
    "version": "0.5.16+commit.9c3226ce.Emscripten.clang"
  },
  "schemaVersion": "3.3.1",
  "updatedAt": "2020-11-11T11:36:10.359Z",
  "networkType": "ethereum",
  "devdoc": {
    "methods": {}
  },
  "userdoc": {
    "methods": {}
  }
}