{
  "contractName": "FixStorage",
  "abi": [
    {
      "constant": false,
      "inputs": [
        {
          "internalType": "string",
          "name": "_name",
          "type": "string"
        },
        {
          "internalType": "uint256",
          "name": "_age",
          "type": "uint256"
        }
      ],
      "name": "set",
      "outputs": [],
      "payable": false,
      "stateMutability": "nonpayable",
      "type": "function"
    },
    {
      "constant": true,
      "inputs": [
        {
          "internalType": "uint256",
          "name": "_current_pos",
          "type": "uint256"
        },
        {
          "internalType": "string",
          "name": "_name",
          "type": "string"
        }
      ],
      "name": "get",
      "outputs": [
        {
          "internalType": "string",
          "name": "",
          "type": "string"
        },
        {
          "internalType": "uint256",
          "name": "",
          "type": "uint256"
        },
        {
          "internalType": "uint256",
          "name": "",
          "type": "uint256"
        }
      ],
      "payable": false,
      "stateMutability": "view",
      "type": "function"
    },
    {
      "constant": true,
      "inputs": [
        {
          "internalType": "uint256",
          "name": "_current_pos",
          "type": "uint256"
        }
      ],
      "name": "get_using_addr",
      "outputs": [
        {
          "internalType": "string",
          "name": "",
          "type": "string"
        },
        {
          "internalType": "uint256",
          "name": "",
          "type": "uint256"
        },
        {
          "internalType": "uint256",
          "name": "",
          "type": "uint256"
        }
      ],
      "payable": false,
      "stateMutability": "view",
      "type": "function"
    },
    {
      "constant": true,
      "inputs": [
        {
          "internalType": "uint256",
          "name": "_current_pos",
          "type": "uint256"
        },
        {
          "internalType": "string",
          "name": "_name",
          "type": "string"
        }
      ],
      "name": "get_using_name",
      "outputs": [
        {
          "internalType": "string",
          "name": "",
          "type": "string"
        },
        {
          "internalType": "uint256",
          "name": "",
          "type": "uint256"
        },
        {
          "internalType": "uint256",
          "name": "",
          "type": "uint256"
        }
      ],
      "payable": false,
      "stateMutability": "view",
      "type": "function"
    },
    {
      "constant": true,
      "inputs": [
        {
          "internalType": "uint256",
          "name": "_pos",
          "type": "uint256"
        }
      ],
      "name": "get_all",
      "outputs": [
        {
          "internalType": "string",
          "name": "",
          "type": "string"
        },
        {
          "internalType": "uint256",
          "name": "",
          "type": "uint256"
        },
        {
          "internalType": "uint256",
          "name": "",
          "type": "uint256"
        }
      ],
      "payable": false,
      "stateMutability": "view",
      "type": "function"
    },
    {
      "constant": true,
      "inputs": [],
      "name": "getlength",
      "outputs": [
        {
          "internalType": "uint256",
          "name": "",
          "type": "uint256"
        }
      ],
      "payable": false,
      "stateMutability": "view",
      "type": "function"
    },
    {
      "constant": true,
      "inputs": [
        {
          "internalType": "address",
          "name": "_addr",
          "type": "address"
        }
      ],
      "name": "get_addr_length",
      "outputs": [
        {
          "internalType": "uint256",
          "name": "",
          "type": "uint256"
        }
      ],
      "payable": false,
      "stateMutability": "view",
      "type": "function"
    },
    {
      "constant": true,
      "inputs": [
        {
          "internalType": "string",
          "name": "_name",
          "type": "string"
        }
      ],
      "name": "get_name_length",
      "outputs": [
        {
          "internalType": "uint256",
          "name": "",
          "type": "uint256"
        }
      ],
      "payable": false,
      "stateMutability": "view",
      "type": "function"
    }
  ],
  "bytecode": "0x608060405234801561001057600080fd5b506110c1806100206000396000f3fe608060405234801561001057600080fd5b50600436106100885760003560e01c8063805da4ad1161005b578063805da4ad146104125780638a42ebe91461055e5780639fba2cca14610623578063a16d35981461067b57610088565b8063083b6f6e1461008d5780630c194875146101425780633fb618a6146101f757806348509acc146102c6575b600080fd5b6100b9600480360360208110156100a357600080fd5b8101908080359060200190929190505050610699565b6040518080602001848152602001838152602001828103825285818151815260200191508051906020019080838360005b838110156101055780820151818401526020810190506100ea565b50505050905090810190601f1680156101325780820380516001836020036101000a031916815260200191505b5094505050505060405180910390f35b61016e6004803603602081101561015857600080fd5b81019080803590602001909291905050506107fc565b6040518080602001848152602001838152602001828103825285818151815260200191508051906020019080838360005b838110156101ba57808201518184015260208101905061019f565b50505050905090810190601f1680156101e75780820380516001836020036101000a031916815260200191505b5094505050505060405180910390f35b6102b06004803603602081101561020d57600080fd5b810190808035906020019064010000000081111561022a57600080fd5b82018360208201111561023c57600080fd5b8035906020019184600183028401116401000000008311171561025e57600080fd5b91908080601f016020809104026020016040519081016040528093929190818152602001838380828437600081840152601f19601f820116905080830192505050505050509192919290505050610906565b6040518082815260200191505060405180910390f35b610389600480360360408110156102dc57600080fd5b81019080803590602001909291908035906020019064010000000081111561030357600080fd5b82018360208201111561031557600080fd5b8035906020019184600183028401116401000000008311171561033757600080fd5b91908080601f016020809104026020016040519081016040528093929190818152602001838380828437600081840152601f19601f82011690508083019250505050505050919291929050505061097c565b6040518080602001848152602001838152602001828103825285818151815260200191508051906020019080838360005b838110156103d55780820151818401526020810190506103ba565b50505050905090810190601f1680156104025780820380516001836020036101000a031916815260200191505b5094505050505060405180910390f35b6104d56004803603604081101561042857600080fd5b81019080803590602001909291908035906020019064010000000081111561044f57600080fd5b82018360208201111561046157600080fd5b8035906020019184600183028401116401000000008311171561048357600080fd5b91908080601f016020809104026020016040519081016040528093929190818152602001838380828437600081840152601f19601f820116905080830192505050505050509192919290505050610b0a565b6040518080602001848152602001838152602001828103825285818151815260200191508051906020019080838360005b83811015610521578082015181840152602081019050610506565b50505050905090810190601f16801561054e5780820380516001836020036101000a031916815260200191505b5094505050505060405180910390f35b6106216004803603604081101561057457600080fd5b810190808035906020019064010000000081111561059157600080fd5b8201836020820111156105a357600080fd5b803590602001918460018302840111640100000000831117156105c557600080fd5b91908080601f016020809104026020016040519081016040528093929190818152602001838380828437600081840152601f19601f82011690508083019250505050505050919291929080359060200190929190505050610dff565b005b6106656004803603602081101561063957600080fd5b81019080803573ffffffffffffffffffffffffffffffffffffffff169060200190929190505050610f8f565b6040518082815260200191505060405180910390f35b610683610fda565b6040518082815260200191505060405180910390f35b606060008060008060003373ffffffffffffffffffffffffffffffffffffffff1673ffffffffffffffffffffffffffffffffffffffff16815260200190815260200160002085815481106106e957fe5b906000526020600020015490506002818154811061070357fe5b90600052602060002090600302016000016002828154811061072157fe5b9060005260206000209060030201600101546002838154811061074057fe5b906000526020600020906003020160020154828054600181600116156101000203166002900480601f0160208091040260200160405190810160405280929190818152602001828054600181600116156101000203166002900480156107e75780601f106107bc576101008083540402835291602001916107e7565b820191906000526020600020905b8154815290600101906020018083116107ca57829003601f168201915b50505050509250935093509350509193909250565b60606000806002848154811061080e57fe5b90600052602060002090600302016000016002858154811061082c57fe5b9060005260206000209060030201600101546002868154811061084b57fe5b906000526020600020906003020160020154828054600181600116156101000203166002900480601f0160208091040260200160405190810160405280929190818152602001828054600181600116156101000203166002900480156108f25780601f106108c7576101008083540402835291602001916108f2565b820191906000526020600020905b8154815290600101906020018083116108d557829003601f168201915b505050505092509250925092509193909250565b60006001826040518082805190602001908083835b6020831061093e578051825260208201915060208101905060208303925061091b565b6001836020036101000a0380198251168184511680821785525050505050509050019150509081526020016040518091039020805490509050919050565b606060008060006001856040518082805190602001908083835b602083106109b95780518252602082019150602081019050602083039250610996565b6001836020036101000a038019825116818451168082178552505050505050905001915050908152602001604051809103902086815481106109f757fe5b9060005260206000200154905060028181548110610a1157fe5b906000526020600020906003020160000160028281548110610a2f57fe5b90600052602060002090600302016001015460028381548110610a4e57fe5b906000526020600020906003020160020154828054600181600116156101000203166002900480601f016020809104026020016040519081016040528092919081815260200182805460018160011615610100020316600290048015610af55780601f10610aca57610100808354040283529160200191610af5565b820191906000526020600020905b815481529060010190602001808311610ad857829003601f168201915b50505050509250935093509350509250925092565b6060600080600280549050851415610b6a5760006002805490506040518060400160405280600c81526020017f656e645f6f665f617272617900000000000000000000000000000000000000008152509190819150925092509250610df8565b60008590505b6002805490508111610df657846040516020018082805190602001908083835b60208310610bb35780518252602082019150602081019050602083039250610b90565b6001836020036101000a0380198251168184511680821785525050505050509050019150506040516020818303038152906040528051906020012060028281548110610bfb57fe5b90600052602060002090600302016000016040516020018082805460018160011615610100020316600290048015610c6a5780601f10610c48576101008083540402835291820191610c6a565b820191906000526020600020905b815481529060010190602001808311610c56575b5050915050604051602081830303815290604052805190602001201415610d8f5760028181548110610c9857fe5b906000526020600020906003020160000160028281548110610cb657fe5b90600052602060002090600302016001015460028381548110610cd557fe5b906000526020600020906003020160020154828054600181600116156101000203166002900480601f016020809104026020016040519081016040528092919081815260200182805460018160011615610100020316600290048015610d7c5780601f10610d5157610100808354040283529160200191610d7c565b820191906000526020600020905b815481529060010190602001808311610d5f57829003601f168201915b5050505050925093509350935050610df8565b600280549050811415610deb5760006002805490506040518060400160405280600c81526020017f656e645f6f665f61727261790000000000000000000000000000000000000000815250919081915093509350935050610df8565b806001019050610b70565b505b9250925092565b60026040518060600160405280848152602001838152602001600280549050815250908060018154018082558091505090600182039060005260206000209060030201600090919290919091506000820151816000019080519060200190610e68929190610fe7565b5060208201518160010155604082015181600201555050506000803373ffffffffffffffffffffffffffffffffffffffff1673ffffffffffffffffffffffffffffffffffffffff16815260200190815260200160002060016002805490500390806001815401808255809150509060018203906000526020600020016000909192909190915055506001826040518082805190602001908083835b60208310610f265780518252602082019150602081019050602083039250610f03565b6001836020036101000a038019825116818451168082178552505050505050905001915050908152602001604051809103902060016002805490500390806001815401808255809150509060018203906000526020600020016000909192909190915055505050565b60008060008373ffffffffffffffffffffffffffffffffffffffff1673ffffffffffffffffffffffffffffffffffffffff168152602001908152602001600020805490509050919050565b6000600280549050905090565b828054600181600116156101000203166002900490600052602060002090601f016020900481019282601f1061102857805160ff1916838001178555611056565b82800160010185558215611056579182015b8281111561105557825182559160200191906001019061103a565b5b5090506110639190611067565b5090565b61108991905b8082111561108557600081600090555060010161106d565b5090565b9056fea265627a7a723158204108e039b4a24def695160afbcbcfaea735d0b3bc34ce92f032c1118e3274abf64736f6c63430005100032",
  "source": "// SPDX-License-Identifier: MIT\r\npragma solidity >=0.4.0 <0.8.0;\r\n\r\ncontract FixStorage {\r\n  struct Person{\r\n    string name;\r\n    uint age;\r\n    uint pos;\r\n  }\r\n\r\n  mapping(address => uint[]) private addr2index;\r\n  mapping(string => uint[]) private name2index;\r\n\r\n  Person[] private persons;\r\n\r\n  function set(string memory _name,uint _age) public {\r\n    persons.push(Person(_name,_age,persons.length));\r\n    addr2index[msg.sender].push(persons.length - 1);\r\n    name2index[_name].push(persons.length - 1);\r\n  }\r\n\r\n  function get(uint _current_pos,string memory _name) public view returns (string memory,uint,uint){\r\n    if(_current_pos == persons.length) return ('end_of_array', 0, persons.length);\r\n\r\n    for(uint i=_current_pos;i<=persons.length;++i){\r\n      if(keccak256(abi.encodePacked(persons[i].name)) == keccak256(abi.encodePacked(_name))){\r\n        return (persons[i].name, persons[i].age, persons[i].pos);\r\n      }else if(i == persons.length){\r\n        return ('end_of_array', 0, persons.length);\r\n      }\r\n    }\r\n  }\r\n\r\n  function get_using_addr(uint _current_pos) public view returns (string memory, uint, uint){\r\n      uint pos = addr2index[msg.sender][_current_pos];\r\n      return (persons[pos].name, persons[pos].age, persons[pos].pos);\r\n  }\r\n\r\n  function get_using_name(uint _current_pos, string memory _name) public view returns (string memory, uint, uint){\r\n      uint pos = name2index[_name][_current_pos];\r\n      return (persons[pos].name, persons[pos].age, persons[pos].pos);\r\n  }\r\n\r\n  function get_all(uint _pos) public view returns(string memory,uint,uint){\r\n      return (persons[_pos].name, persons[_pos].age,persons[_pos].pos);\r\n  }\r\n\r\n  function getlength() public view returns (uint){\r\n    return persons.length;\r\n  }\r\n\r\n  function get_addr_length(address _addr) public view returns (uint){\r\n      return addr2index[_addr].length;\r\n  }\r\n\r\n  function get_name_length(string memory _name) public view returns (uint){\r\n      return name2index[_name].length;\r\n  }\r\n}",
  "sourcePath": "C:/Users/shuuu/dev_contract_pre/contracts/FixStorage.sol",
  "compiler": {
    "name": "solc",
    "version": "0.5.16+commit.9c3226ce.Emscripten.clang"
  },
  "schemaVersion": "3.3.1",
  "updatedAt": "2020-11-20T14:53:47.669Z",
  "networkType": "quorum",
  "devdoc": {
    "methods": {}
  },
  "userdoc": {
    "methods": {}
  }
}