{
  "contractName": "SimpleStorage",
  "abi": [
    {
      "constant": false,
      "inputs": [
        {
          "internalType": "string",
          "name": "_name",
          "type": "string"
        },
        {
          "internalType": "uint256",
          "name": "_age",
          "type": "uint256"
        }
      ],
      "name": "set",
      "outputs": [],
      "payable": false,
      "stateMutability": "nonpayable",
      "type": "function"
    },
    {
      "constant": true,
      "inputs": [
        {
          "internalType": "uint256",
          "name": "_current_pos",
          "type": "uint256"
        },
        {
          "internalType": "string",
          "name": "_name",
          "type": "string"
        }
      ],
      "name": "get",
      "outputs": [
        {
          "internalType": "string",
          "name": "",
          "type": "string"
        },
        {
          "internalType": "uint256",
          "name": "",
          "type": "uint256"
        },
        {
          "internalType": "uint256",
          "name": "",
          "type": "uint256"
        }
      ],
      "payable": false,
      "stateMutability": "view",
      "type": "function"
    },
    {
      "constant": true,
      "inputs": [
        {
          "internalType": "uint256",
          "name": "_pos",
          "type": "uint256"
        }
      ],
      "name": "get_all",
      "outputs": [
        {
          "internalType": "string",
          "name": "",
          "type": "string"
        },
        {
          "internalType": "uint256",
          "name": "",
          "type": "uint256"
        },
        {
          "internalType": "uint256",
          "name": "",
          "type": "uint256"
        }
      ],
      "payable": false,
      "stateMutability": "view",
      "type": "function"
    },
    {
      "constant": true,
      "inputs": [],
      "name": "getlength",
      "outputs": [
        {
          "internalType": "uint256",
          "name": "",
          "type": "uint256"
        }
      ],
      "payable": false,
      "stateMutability": "view",
      "type": "function"
    }
  ],
  "bytecode": "0x608060405234801561001057600080fd5b5061089d806100206000396000f3fe608060405234801561001057600080fd5b506004361061004c5760003560e01c80630c19487514610051578063805da4ad146101065780638a42ebe914610252578063a16d359814610317575b600080fd5b61007d6004803603602081101561006757600080fd5b8101908080359060200190929190505050610335565b6040518080602001848152602001838152602001828103825285818151815260200191508051906020019080838360005b838110156100c95780820151818401526020810190506100ae565b50505050905090810190601f1680156100f65780820380516001836020036101000a031916815260200191505b5094505050505060405180910390f35b6101c96004803603604081101561011c57600080fd5b81019080803590602001909291908035906020019064010000000081111561014357600080fd5b82018360208201111561015557600080fd5b8035906020019184600183028401116401000000008311171561017757600080fd5b91908080601f016020809104026020016040519081016040528093929190818152602001838380828437600081840152601f19601f82011690508083019250505050505050919291929050505061043f565b6040518080602001848152602001838152602001828103825285818151815260200191508051906020019080838360005b838110156102155780820151818401526020810190506101fa565b50505050905090810190601f1680156102425780820380516001836020036101000a031916815260200191505b5094505050505060405180910390f35b6103156004803603604081101561026857600080fd5b810190808035906020019064010000000081111561028557600080fd5b82018360208201111561029757600080fd5b803590602001918460018302840111640100000000831117156102b957600080fd5b91908080601f016020809104026020016040519081016040528093929190818152602001838380828437600081840152601f19601f82011690508083019250505050505050919291929080359060200190929190505050610732565b005b61031f6107b7565b6040518082815260200191505060405180910390f35b60606000806000848154811061034757fe5b90600052602060002090600302016000016000858154811061036557fe5b9060005260206000209060030201600101546000868154811061038457fe5b906000526020600020906003020160020154828054600181600116156101000203166002900480601f01602080910402602001604051908101604052809291908181526020018280546001816001161561010002031660029004801561042b5780601f106104005761010080835404028352916020019161042b565b820191906000526020600020905b81548152906001019060200180831161040e57829003601f168201915b505050505092509250925092509193909250565b606060008060008054905085141561049e57600080805490506040518060400160405280600c81526020017f656e645f6f665f61727261790000000000000000000000000000000000000000815250919081915092509250925061072b565b60008590505b600080549050811161072957846040516020018082805190602001908083835b602083106104e757805182526020820191506020810190506020830392506104c4565b6001836020036101000a038019825116818451168082178552505050505050905001915050604051602081830303815290604052805190602001206000828154811061052f57fe5b9060005260206000209060030201600001604051602001808280546001816001161561010002031660029004801561059e5780601f1061057c57610100808354040283529182019161059e565b820191906000526020600020905b81548152906001019060200180831161058a575b50509150506040516020818303038152906040528051906020012014156106c357600081815481106105cc57fe5b9060005260206000209060030201600001600082815481106105ea57fe5b9060005260206000209060030201600101546000838154811061060957fe5b906000526020600020906003020160020154828054600181600116156101000203166002900480601f0160208091040260200160405190810160405280929190818152602001828054600181600116156101000203166002900480156106b05780601f10610685576101008083540402835291602001916106b0565b820191906000526020600020905b81548152906001019060200180831161069357829003601f168201915b505050505092509350935093505061072b565b60008054905081141561071e57600080805490506040518060400160405280600c81526020017f656e645f6f665f6172726179000000000000000000000000000000000000000081525091908191509350935093505061072b565b8060010190506104a4565b505b9250925092565b6000604051806060016040528084815260200183815260200160008054905081525090806001815401808255809150509060018203906000526020600020906003020160009091929091909150600082015181600001908051906020019061079b9291906107c3565b5060208201518160010155604082015181600201555050505050565b60008080549050905090565b828054600181600116156101000203166002900490600052602060002090601f016020900481019282601f1061080457805160ff1916838001178555610832565b82800160010185558215610832579182015b82811115610831578251825591602001919060010190610816565b5b50905061083f9190610843565b5090565b61086591905b80821115610861576000816000905550600101610849565b5090565b9056fea265627a7a7231582063632cc32f7586362cefa94432d776a70712b950f97097ec7629cdb5eb0325e864736f6c63430005100032",
  "source": "// SPDX-License-Identifier: MIT\r\npragma solidity >=0.4.0 <0.8.0;\r\n\r\ncontract SimpleStorage {\r\n  struct Person{\r\n    string name;\r\n    uint age;\r\n    uint pos;\r\n  }\r\n\r\n  Person[] private persons;\r\n\r\n  function set(string memory _name,uint _age) public {\r\n    persons.push(Person(_name,_age,persons.length));\r\n  }\r\n\r\n  function get(uint _current_pos,string memory _name) public view returns (string memory,uint,uint){\r\n    if(_current_pos == persons.length) return ('end_of_array', 0, persons.length);\r\n\r\n    for(uint i=_current_pos;i<=persons.length;++i){\r\n      if(keccak256(abi.encodePacked(persons[i].name)) == keccak256(abi.encodePacked(_name))){\r\n        return (persons[i].name, persons[i].age, persons[i].pos);\r\n      }else if(i == persons.length){\r\n        return ('end_of_array', 0, persons.length);\r\n      }\r\n    }\r\n  }\r\n\r\n  function get_all(uint _pos) public view returns(string memory,uint,uint){\r\n      return (persons[_pos].name, persons[_pos].age,persons[_pos].pos);\r\n  }\r\n\r\n  function getlength() public view returns (uint){\r\n    return persons.length;\r\n  }\r\n}",
  "sourcePath": "C:/Users/shuuu/dev_contract_pre/contracts/SimpleStorage.sol",
  "compiler": {
    "name": "solc",
    "version": "0.5.16+commit.9c3226ce.Emscripten.clang"
  },
  "schemaVersion": "3.3.1",
  "updatedAt": "2020-11-18T08:30:23.196Z",
  "networkType": "ethereum",
  "devdoc": {
    "methods": {}
  },
  "userdoc": {
    "methods": {}
  }
}