{
  "contractName": "SimpleStorage",
  "abi": [
    {
      "constant": true,
      "inputs": [
        {
          "internalType": "uint256",
          "name": "",
          "type": "uint256"
        }
      ],
      "name": "persons",
      "outputs": [
        {
          "internalType": "string",
          "name": "name",
          "type": "string"
        },
        {
          "internalType": "uint256",
          "name": "age",
          "type": "uint256"
        },
        {
          "internalType": "uint256",
          "name": "pos",
          "type": "uint256"
        }
      ],
      "payable": false,
      "stateMutability": "view",
      "type": "function"
    },
    {
      "constant": false,
      "inputs": [
        {
          "internalType": "string",
          "name": "_name",
          "type": "string"
        },
        {
          "internalType": "uint256",
          "name": "_age",
          "type": "uint256"
        }
      ],
      "name": "set",
      "outputs": [],
      "payable": false,
      "stateMutability": "nonpayable",
      "type": "function"
    },
    {
      "constant": true,
      "inputs": [
        {
          "internalType": "uint256",
          "name": "_current_pos",
          "type": "uint256"
        },
        {
          "internalType": "string",
          "name": "_name",
          "type": "string"
        }
      ],
      "name": "get",
      "outputs": [
        {
          "internalType": "string",
          "name": "",
          "type": "string"
        },
        {
          "internalType": "uint256",
          "name": "",
          "type": "uint256"
        },
        {
          "internalType": "uint256",
          "name": "",
          "type": "uint256"
        }
      ],
      "payable": false,
      "stateMutability": "view",
      "type": "function"
    },
    {
      "constant": true,
      "inputs": [
        {
          "internalType": "uint256",
          "name": "_pos",
          "type": "uint256"
        }
      ],
      "name": "get_all",
      "outputs": [
        {
          "internalType": "string",
          "name": "",
          "type": "string"
        },
        {
          "internalType": "uint256",
          "name": "",
          "type": "uint256"
        },
        {
          "internalType": "uint256",
          "name": "",
          "type": "uint256"
        }
      ],
      "payable": false,
      "stateMutability": "view",
      "type": "function"
    },
    {
      "constant": true,
      "inputs": [],
      "name": "getlength",
      "outputs": [
        {
          "internalType": "uint256",
          "name": "",
          "type": "uint256"
        }
      ],
      "payable": false,
      "stateMutability": "view",
      "type": "function"
    }
  ],
  "bytecode": "0x608060405234801561001057600080fd5b50610a2c806100206000396000f3fe608060405234801561001057600080fd5b50600436106100575760003560e01c80630c1948751461005c578063805da4ad146101115780638a42ebe91461025d578063a16d359814610322578063a2f9eac614610340575b600080fd5b6100886004803603602081101561007257600080fd5b81019080803590602001909291905050506103f5565b6040518080602001848152602001838152602001828103825285818151815260200191508051906020019080838360005b838110156100d45780820151818401526020810190506100b9565b50505050905090810190601f1680156101015780820380516001836020036101000a031916815260200191505b5094505050505060405180910390f35b6101d46004803603604081101561012757600080fd5b81019080803590602001909291908035906020019064010000000081111561014e57600080fd5b82018360208201111561016057600080fd5b8035906020019184600183028401116401000000008311171561018257600080fd5b91908080601f016020809104026020016040519081016040528093929190818152602001838380828437600081840152601f19601f8201169050808301925050505050505091929192905050506104ff565b6040518080602001848152602001838152602001828103825285818151815260200191508051906020019080838360005b83811015610220578082015181840152602081019050610205565b50505050905090810190601f16801561024d5780820380516001836020036101000a031916815260200191505b5094505050505060405180910390f35b6103206004803603604081101561027357600080fd5b810190808035906020019064010000000081111561029057600080fd5b8201836020820111156102a257600080fd5b803590602001918460018302840111640100000000831117156102c457600080fd5b91908080601f016020809104026020016040519081016040528093929190818152602001838380828437600081840152601f19601f820116905080830192505050505050509192919290803590602001909291905050506107f2565b005b61032a610877565b6040518082815260200191505060405180910390f35b61036c6004803603602081101561035657600080fd5b8101908080359060200190929190505050610883565b6040518080602001848152602001838152602001828103825285818151815260200191508051906020019080838360005b838110156103b857808201518184015260208101905061039d565b50505050905090810190601f1680156103e55780820380516001836020036101000a031916815260200191505b5094505050505060405180910390f35b60606000806000848154811061040757fe5b90600052602060002090600302016000016000858154811061042557fe5b9060005260206000209060030201600101546000868154811061044457fe5b906000526020600020906003020160020154828054600181600116156101000203166002900480601f0160208091040260200160405190810160405280929190818152602001828054600181600116156101000203166002900480156104eb5780601f106104c0576101008083540402835291602001916104eb565b820191906000526020600020905b8154815290600101906020018083116104ce57829003601f168201915b505050505092509250925092509193909250565b606060008060008054905085141561055e57600080805490506040518060400160405280600c81526020017f656e645f6f665f6172726179000000000000000000000000000000000000000081525091908191509250925092506107eb565b60008590505b60008054905081116107e957846040516020018082805190602001908083835b602083106105a75780518252602082019150602081019050602083039250610584565b6001836020036101000a03801982511681845116808217855250505050505090500191505060405160208183030381529060405280519060200120600082815481106105ef57fe5b9060005260206000209060030201600001604051602001808280546001816001161561010002031660029004801561065e5780601f1061063c57610100808354040283529182019161065e565b820191906000526020600020905b81548152906001019060200180831161064a575b5050915050604051602081830303815290604052805190602001201415610783576000818154811061068c57fe5b9060005260206000209060030201600001600082815481106106aa57fe5b906000526020600020906003020160010154600083815481106106c957fe5b906000526020600020906003020160020154828054600181600116156101000203166002900480601f0160208091040260200160405190810160405280929190818152602001828054600181600116156101000203166002900480156107705780601f1061074557610100808354040283529160200191610770565b820191906000526020600020905b81548152906001019060200180831161075357829003601f168201915b50505050509250935093509350506107eb565b6000805490508114156107de57600080805490506040518060400160405280600c81526020017f656e645f6f665f617272617900000000000000000000000000000000000000008152509190819150935093509350506107eb565b806001019050610564565b505b9250925092565b6000604051806060016040528084815260200183815260200160008054905081525090806001815401808255809150509060018203906000526020600020906003020160009091929091909150600082015181600001908051906020019061085b929190610952565b5060208201518160010155604082015181600201555050505050565b60008080549050905090565b6000818154811061089057fe5b9060005260206000209060030201600091509050806000018054600181600116156101000203166002900480601f01602080910402602001604051908101604052809291908181526020018280546001816001161561010002031660029004801561093c5780601f106109115761010080835404028352916020019161093c565b820191906000526020600020905b81548152906001019060200180831161091f57829003601f168201915b5050505050908060010154908060020154905083565b828054600181600116156101000203166002900490600052602060002090601f016020900481019282601f1061099357805160ff19168380011785556109c1565b828001600101855582156109c1579182015b828111156109c05782518255916020019190600101906109a5565b5b5090506109ce91906109d2565b5090565b6109f491905b808211156109f05760008160009055506001016109d8565b5090565b9056fea265627a7a7231582078ee29903c71f85cce79b4020f9a661f36607da9d579ef981b1c616c9bfee68e64736f6c63430005100032",
  "source": "// SPDX-License-Identifier: MIT\r\npragma solidity >=0.4.0 <0.8.0;\r\n\r\ncontract SimpleStorage {\r\n  struct Person{\r\n    string name;\r\n    uint age;\r\n    uint pos;\r\n  }\r\n\r\n  Person[] public persons;\r\n\r\n  function set(string memory _name,uint _age) public {\r\n    persons.push(Person(_name,_age,persons.length));\r\n  }\r\n\r\n  function get(uint _current_pos,string memory _name) public view returns (string memory,uint,uint){\r\n    if(_current_pos == persons.length) return ('end_of_array', 0, persons.length);\r\n\r\n    for(uint i=_current_pos;i<=persons.length;++i){\r\n      if(keccak256(abi.encodePacked(persons[i].name)) == keccak256(abi.encodePacked(_name))){\r\n        return (persons[i].name, persons[i].age, persons[i].pos);\r\n      }else if(i == persons.length){\r\n        return ('end_of_array', 0, persons.length);\r\n      }\r\n    }\r\n  }\r\n\r\n  function get_all(uint _pos) public view returns(string memory,uint,uint){\r\n      return (persons[_pos].name, persons[_pos].age,persons[_pos].pos);\r\n  }\r\n\r\n  function getlength() public view returns (uint){\r\n    return persons.length;\r\n  }\r\n}",
  "sourcePath": "C:/Users/shuuu/dev_contract_pre/contracts/SimpleStorage.sol",
  "compiler": {
    "name": "solc",
    "version": "0.5.16+commit.9c3226ce.Emscripten.clang"
  },
  "schemaVersion": "3.3.1",
  "updatedAt": "2020-11-11T11:36:09.999Z",
  "networkType": "ethereum",
  "devdoc": {
    "methods": {}
  },
  "userdoc": {
    "methods": {}
  }
}